:020000040800F2
:10000000889801209D010008B5D70008077D0008E9
:100010002FD30008C7370008F107010800000000CF
:1000200000000000000000000000000083E900085C
:100030009D4500080000000029DB00088FE900084A
:10004000B7010008B7010008B7010008D9DB0008B4
:10005000B7010008B7010008B7010008B7010008A0
:10006000B7010008B7010008B7010008B701000890
:10007000B7010008B7010008B7010008B701000880
:10008000B7010008D5440008B7010008B70100080F
:10009000B7010008B7010008B7010008B701000860
:1000A000B701000841EA0008B7010008B7010008DD
:1000B000B7010008B7010008B7010008B701000840
:1000C000B7010008B7010008B701000869E500089A
:1000D000B7010008B7010008B7010008B701000820
:1000E000B70100082DDB0008B7010008B7010008C0
:1000F000B7010008B7010008B7010008B701000800
:10010000B7010008B7010008B7010008B7010008EF
:10011000B7010008B7010008B7010008B7010008DF
:10012000E1440008B7010008B7010008ED440008E9
:10013000B7010008B7010008B7010008B7010008BF
:10014000B7010008B7010008B7010008C9D70008C7
:10015000B7010008B7010008B7010008B70100089F
:10016000B7010008B7010008B7010008B70100088F
:10017000B7010008B7010008B7010008000000003F
:10018000B7010008B7010008DFF80CD000F094FABE
:1001900000480047AF3E0108889801200648804784
:1001A00006480047FEE7FEE7FEE7FEE7FEE7FEE75C
:1001B000FEE7FEE7FEE7FEE731EA000889010008F6
:1001C0002DE9F05F0546002092469B46884606468C
:1001D000814640241BE0284641464746224600F01F
:1001E000F8F953465A46C01A914110D311461846A1
:1001F000224600F0DFF92D1A67EB01084F46224630
:100200000120002100F0D6F917EB00094E41201E15
:10021000A4F10104DFDC484631462A464346BDE8E6
:10022000F09F40EA01039B0703D009E008C9121FB1
:1002300008C0042AFAD203E011F8013B00F8013BA0
:10024000521EF9D27047D2B201E000F8012B491ECC
:10025000FBD270470022F6E710B513460A46044663
:100260001946FFF7F0FF204610BDCAB2401E10F835
:10027000011F8A4202D00029F9D10020704730B511
:1002800004460020034600E05B1C934203D2E05C7E
:10029000CD5C401BF8D030BD034611F8012B00F8AF
:1002A000012B002AF9D1184670470246C9B200E076
:1002B000401C0378002BFBD102E003788B4203D073
:1002C000401E9042F9D2002070472DE9F0410E46C1
:1002D0000546002400E0641C285D00F08AF907460A
:1002E000305D00F086F9381A02D1295D0029F2D17B
:1002F000BDE8F0812DE9FE4F81EA030404F00044DB
:1003000021F0004100944FF0000B23F0004350EA2D
:1003100001045ED052EA03045BD0C3F30A54C1F374
:100320000A552C44A4F2F3340194A0FB0254C1F307
:10033000130141F48011C3F3130343F4801301FB51
:10034000024400FB034E840A970A44EA815447EAB8
:100350008357A4FB076802958D0A05FB07854FEAC2
:10036000932C04FB0C542705029D4FEA065847EADC
:100370001637B5EB08056EEB070C870E920E47EAB1
:10038000811742EA8312A7FB0201B6EB0B0164EB73
:1003900000042B0D43EA0C335E1844EB1C50DA4684
:1003A0005146E7FB0201C5F313044FEA0B3343EA5E
:1003B00014534FEA0432019C43EA0603A4F10C04EF
:1003C0000294009CCDE900B400F028F903B0BDE828
:1003D000F08F00200146F9E72DE9F04D81EA030492
:1003E00004F0004B21F0004514464FF0000A23F0C2
:1003F000004150EA050220D054EA01021DD0C5F3A5
:100400000A570246C5F31303C1F31300C1F30A569A
:1004100040F4801543F48013A7EB0608101BD64662
:1004200008F2FD3873EB050002D308F1010801E082
:1004300092185B41B8F1000F03DA00200146BDE8D5
:10044000F08D00204FF48011064684460EE0171B05
:1004500073EB050705D3121B63EB050306434CEA58
:10046000010C49084FEA300092185B4150EA01073D
:10047000EDD152EA030012D082EA040083EA0501BA
:10048000084305D0101BAB4106D20122002306E031
:1004900000224FF0004302E06FF0010253101AEB0C
:1004A00006004CEB085110EB0A0041EB0B01BDE8D4
:1004B000F04D00F0A4B80EB5C10F80EAE07008441A
:1004C000CA07002140F233438DE80E000A460B466E
:1004D00000F0A4F803B000BD0EB540F23341029124
:1004E0000021CDE900110A460B4600F097F803B051
:1004F00000BD70B5C1F30A5201F000450024C1F3FC
:10050000130140F2FF3341F480119A4201DA0020D6
:1005100070BD40F233439A42A2F2334203DC5242AE
:1005200000F057F800E090402C43F1D0404270BDFD
:10053000C1F30A5210B5C1F3130140F2FF3341F485
:1005400080119A4201DA002010BD40F233439A42F2
:10055000A2F2334203DC524200F03BF810BD90405F
:1005600010BD00F0004230F000400AD0C10D01F58E
:100570006071C0F3160042EA0151C20840071143FE
:10058000704700200146704730B50B4601460020F9
:100590002022012409E021FA02F59D4205D303FA45
:1005A00002F5491B04FA02F52844151EA2F10102C6
:1005B000F1DC30BD202A04DB203A00FA02F10020F1
:1005C00070479140C2F1200320FA03F31943904091
:1005D0007047202A04DB203A21FA02F000217047FC
:1005E00021FA02F3D040C2F120029140084319469B
:1005F0007047A0F14101192900D82030704710B58B
:10060000141E73F1000408DA401C41F10001921835
:100610005B411A4301D120F0010010BD2DE9F04DDE
:1006200092469B4611B1B1FA81F202E0B0FA80F233
:1006300020329046FFF7BEFF04460F4640EA0A000C
:1006400041EA0B0153465A46084313D0114653EA78
:10065000010019D0C8F140025046FFF7BAFF054625
:100660000E46504659464246FFF7A4FF084305D0C0
:10067000012004E020463946BDE8F08D0020054306
:1006800046EAE0762C4337430A986305E40AA0EB78
:1006900008000022FD0A44EA47540A3002D500202F
:1006A0000146E9E7010510196941DDE9084500192E
:1006B0006941BDE8F04DA2E7064C074D06E0E06851
:1006C00040F0010394E8070098471034AC42F6D399
:1006D000FFF75EFDB4FE0208E4FE020870B58C1858
:1006E00010F8015B15F0070301D110F8013B2A1146
:1006F00006D110F8012B03E010F8016B01F8016B33
:100700005B1EF9D12B0705D40023521E0DD401F82E
:10071000013BFAE710F8013BCB1A921C03E013F8F7
:10072000015B01F8015B521EF9D5A142D8D300202C
:1007300070BD000008B561460DF01AF9BDE808402B
:100740004EF0010E704708B560460DF0FBF8BDE8AD
:1007500008404EF0010E704700BF0000DAF8840038
:10076000A9EB000101F101004FEA1021DAF8802025
:1007700002F8011942F4807202F801098AF8802017
:1007800008F04D0013F0004F18BF40F0800013F048
:10079000FF0F08BF40F0020040F030004FF6FE7C33
:1007A00002F0DEFEDAF8A00000F10700CAF8A000AF
:1007B000DAF80010B8F5E0685CBF19F8010B51F8E1
:1007C00020F0DAF888F019F8010B06EB00604FEA28
:1007D000106C1BF80CC000F180704FEA10611BF820
:1007E00001104CEA012C0CF460410FF20A0E4FEAA2
:1007F000D12154F801F045EA00654FEA2563DAF8A3
:10080000A00000F10600CAF8A000DAF80010B8F560
:10081000C0685CBF19F8010B51F820F0DAF888F0D5
:1008200019F801CB1BF80C0045EA00654FEA256377
:10083000DAF8A00000F10300CAF8A000DAF800100E
:10084000B8F540785CBF19F8010B51F820F0DAF8E0
:1008500088F019F801CB1BF80C00004450EA006343
:1008600048F001080BF80C00DAF8A00000F10500D0
:10087000CAF8A000DAF8001078F5A0685CBF19F893
:10088000010B51F820F0DAF888F008F04D0013F071
:10089000004F18BF40F0800013F0FF0F08BF40F07A
:1008A000020040F03000DAF8802002F801098AF8EE
:1008B0008020DAF8A00000F10300CAF8A000DAF8FE
:1008C0000010B8F540785CBF19F8010B51F820F022
:1008D000DAF888F019F8010B45EA00654FEA25635C
:1008E000DAF8A00000F10200CAF8A000DAF800105F
:1008F000B8F500785CBF19F8010B51F820F0DAF870
:1009000088F06D194FEA256348F00108DAF8A00075
:1009100000F10200CAF8A000DAF8001078F50078BB
:100920005CBF19F8010B51F820F0DAF888F019F8DB
:1009300001CB19F8010B4CEA002C0CF460410FF2CA
:100940000A0E4FEAD12154F801F045EA00654FEA5A
:100950002563DAF8A00000F10400CAF8A000DAF874
:100960000010B8F580685CBF19F8010B51F820F051
:10097000DAF888F019F801CB19F8010B4CEA002CD1
:100980000CF460410FF2080E4FEAD12154F801F047
:10099000004450EA006348F001080CF460410AF199
:1009A00024020FF20A0E4FEAD12152F801F0DAF8D0
:1009B000A00000F10600CAF8A000DAF8001078F5EF
:1009C000C0685CBF19F8010B51F820F0DAF888F024
:1009D00013F0004F19F9010B04BF8144A8F580788A
:1009E000DAF8A00000F10200CAF8A000DAF800105E
:1009F000B8F500785CBF19F8010B51F820F0DAF86F
:100A000088F019F8010B10F80BC0584441784CEAF3
:100A1000012C0CEB176C0CF460410FF20A0E4FEA3C
:100A2000D12154F801F045EA00654FEA2563DAF870
:100A3000A00000F10500CAF8A000DAF80010B8F52F
:100A4000A0685CBF19F8010B51F820F0DAF888F0C3
:100A500019F801CB06EB0C6C4FEA1C601BF8000088
:100A600045EA00654FEA2563DAF8A00000F10400CA
:100A7000CAF8A000DAF80010B8F580685CBF19F871
:100A8000010B51F820F0DAF888F019F801CB06EBE9
:100A90000C6C4FEA1C601BF80000004450EA006335
:100AA00048F001084FEA1C610BF80100DAF8A000D9
:100AB00000F10600CAF8A000DAF8001078F5C06866
:100AC0005CBF19F8010B51F820F0DAF888F028F033
:100AD0000108DAF8A00000F10200CAF8A000DAF874
:100AE0000010B8F500785CBF19F8010B51F820F040
:100AF000DAF888F019F801CB19F8010B4CEA002C50
:100B00000CEB176C0CF460410FF2080E4FEAD12188
:100B100054F801F045EA00654FEA2563DAF8A000D1
:100B200000F10400CAF8A000DAF80010B8F58068F7
:100B30005CBF19F8010B51F820F0DAF888F019F8C9
:100B400001CB19F8010B4CEA002C0CEB166C0CF4E1
:100B500060410FF20A0E4FEAD12154F801F045EA44
:100B600000654FEA2563DAF8A00000F10400CAF836
:100B7000A000DAF80010B8F580685CBF19F8010B26
:100B800051F820F0DAF888F019F801CB19F8010BC8
:100B90004CEA002C0CEB166C0CF460410FF2080EC2
:100BA0004FEAD12154F801F0004450EA006348F0C4
:100BB00001080CF460410AF124020FF20A0E4FEA18
:100BC000D12152F801F0DAF8A00000F10700CAF8CC
:100BD000A000DAF8001078F5E0685CBF19F8010BA6
:100BE00051F820F0DAF888F019F8012BDAF88410BF
:100BF000A9EB010099F8001042EA01294FEA1021FF
:100C0000DAF8802002F8011942F4807202F8010932
:100C10008AF8802009F460410AF144024FEAD120A9
:100C20001058CAF884008144DAF8A00000F10600E8
:100C3000CAF8A000DAF80010B8F5C0685CBF19F86F
:100C4000010B51F820F0DAF888F019F8010B06EBE7
:100C500000604FEA106C1BF80CC000F180704FEA86
:100C600010611BF801104CEA012C0CF460410FF2EA
:100C70000A0E4FEAD12154F801F005EA00654FEA67
:100C80002563DAF8A00000F10600CAF8A000DAF83F
:100C90000010B8F5C0685CBF19F8010B51F820F0DE
:100CA000DAF888F019F801CB1BF80C0028F040089E
:100CB00010F0400F18BF48F0400800EA156343EAFF
:100CC0000063DAF8A00000F10300CAF8A000DAF827
:100CD0000010B8F540785CBF19F8010B51F820F00E
:100CE000DAF888F019F801CB1BF80C0005EA00656A
:100CF0004FEA2563DAF8A00000F10300CAF8A0006B
:100D0000DAF80010B8F540785CBF19F8010B51F81B
:100D100020F0DAF888F019F801CB1BF80C005FEA34
:100D2000580840EB000050EA006348EB08080BF855
:100D30000C00DAF8A00000F10500CAF8A000DAF80B
:100D40000010B8F5A0685CBF19F8010B51F820F04D
:100D5000DAF888F09AF8802002F101028AF88020FF
:100D600042F480721BF9020028F04D0800F04D019A
:100D700048EA010820F0FD0383F00203DAF8A0003E
:100D800000F10400CAF8A000DAF80010B8F5806895
:100D90005CBF19F8010B51F820F0DAF888F019F867
:100DA000010B05EA00654FEA2563DAF8A00000F1BF
:100DB0000200CAF8A000DAF80010B8F500785CBFAD
:100DC00019F8010B51F820F0DAF888F05FEA5808BA
:100DD00028BF45F400056D194FEA256348EB080864
:100DE000DAF8A00000F10200CAF8A000DAF800105A
:100DF000B8F500785CBF19F8010B51F820F0DAF86B
:100E000088F019F801CB19F8010B4CEA002C0CF40E
:100E100060410FF20A0E4FEAD12154F801F028F098
:100E2000400810F0400F18BF48F0400800EA156372
:100E300043EA0063DAF8A00000F10400CAF8A00059
:100E4000DAF80010B8F580685CBF19F8010B51F8AA
:100E500020F0DAF888F019F801CB19F8010B4CEA08
:100E6000002C0CF460410FF20A0E4FEAD12154F825
:100E700001F005EA00654FEA2563DAF8A00000F109
:100E80000400CAF8A000DAF80010B8F580685CBF6A
:100E900019F8010B51F820F0DAF888F019F801CBB5
:100EA00019F8010B4CEA002C0CF460410FF2080E0B
:100EB0004FEAD12154F801F05FEA580840EB0000F6
:100EC00050EA006348EB08080CF460410AF1240280
:100ED0000FF2080E4FEAD12152F801F0DAF8A00023
:100EE00000F10600CAF8A000DAF80010B8F5C068F2
:100EF0005CBF19F8010B51F820F0DAF888F013F014
:100F0000004F19F9010B1CBF8144A8F58078DAF86D
:100F1000A00000F10200CAF8A000DAF80010B8F54D
:100F200000785CBF19F8010B51F820F0DAF888F06E
:100F300019F8010B10F80BC0584441784CEA012C09
:100F40000CEB176C0CF460410FF2080E4FEAD12144
:100F500054F801F005EA00654FEA2563DAF8A000CD
:100F600000F10500CAF8A000DAF80010B8F5A06892
:100F70005CBF19F8010B51F820F0DAF888F019F885
:100F800001CB06EB0C6C4FEA1C601BF8000005EA75
:100F900000654FEA2563DAF8A00000F10400CAF802
:100FA000A000DAF80010B8F580685CBF19F8010BF2
:100FB00051F820F0DAF888F019F801CB06EB0C6C48
:100FC0004FEA1C601BF800005FEA580840EB000085
:100FD00050EA006348EB08084FEA1C610BF8010077
:100FE000DAF8A00000F10600CAF8A000DAF8001054
:100FF000B8F5C0685CBF19F8010B51F820F0DAF8B9
:1010000088F048F00108DAF8A00000F10200CAF800
:10101000A000DAF80010B8F500785CBF19F8010BF1
:1010200051F820F0DAF888F019F801CB19F8010B23
:101030004CEA002C0CEB176C0CF460410FF2080E1C
:101040004FEAD12154F801F005EA00654FEA256323
:10105000DAF8A00000F10400CAF8A000DAF80010E5
:10106000B8F580685CBF19F8010B51F820F0DAF888
:1010700088F019F801CB19F8010B4CEA002C0CEBA5
:10108000166C0CF460410FF20A0E4FEAD12154F8AD
:1010900001F005EA00654FEA2563DAF8A00000F1E7
:1010A0000400CAF8A000DAF80010B8F580685CBF48
:1010B00019F8010B51F820F0DAF888F019F801CB93
:1010C00019F8010B4CEA002C0CEB166C0CF4604187
:1010D0000FF2080E4FEAD12154F801F05FEA5808E8
:1010E00040EB000050EA006348EB08080CF4604154
:1010F0000AF124020FF2080E4FEAD12152F801F052
:10110000DAF8A00000F10700CAF8A000DAF8001031
:10111000B8F5E0685CBF19F8010B51F820F0DAF877
:1011200088F09AF8802002F101028AF8802042F4C7
:1011300080721BF9020028F04D0800F04D0148EACA
:10114000010820F0FD0383F002039AF8802002F1E9
:1011500002028AF88020DAF8802012F8010942F4AD
:10116000807292F8009049EA002909F460410AF17E
:1011700044024FEAD1201058CAF884008144DAF8BA
:10118000A00000F10600CAF8A000DAF80010B8F5D7
:10119000C0685CBF19F8010B51F820F0DAF888F04C
:1011A00019F8010B06EB00604FEA106C1BF80CC03D
:1011B00000F180704FEA10611BF801104CEA012C1D
:1011C0000CF460410FF2080E4FEAD12154F801F0FF
:1011D00085EA00654FEA2563DAF8A00000F1060011
:1011E000CAF8A000DAF80010B8F5C0685CBF19F8BA
:1011F000010B51F820F0DAF888F019F801CB1BF850
:101200000C0085EA00654FEA2563DAF8A00000F1DA
:101210000300CAF8A000DAF80010B8F540785CBF07
:1012200019F8010B51F820F0DAF888F019F801CB21
:101230001BF80C305B0848F001080BF80C30DAF8AA
:10124000A00000F10500CAF8A000DAF8001078F557
:10125000A0685CBF19F8010B51F820F0DAF888F0AB
:101260004FEA1560DAF8802002F801098AF8802038
:10127000DAF8A00000F10300CAF8A000DAF80010C4
:10128000B8F540785CBF19F8010B51F820F0DAF896
:1012900088F019F8010B85EA00654FEA2563DAF852
:1012A000A00000F10200CAF8A000DAF80010B8F5BA
:1012B00000785CBF19F8010B51F820F0DAF888F0DB
:1012C0006B0E4FEA036548F00108DAF8A00000F160
:1012D0000200CAF8A000DAF8001078F500785CBFC8
:1012E00019F8010B51F820F0DAF888F019F8010B21
:1012F00099F8001040EA012909F460410AF144021A
:101300004FEAD1201058CAF884008144DAF8A000CE
:1013100000F10300CAF8A000DAF80010B8F5407830
:101320005CBF19F8010B51F820F0DAF888F019F8D1
:1013300001CB19F8010B4CEA002C0CF460410FF2C0
:101340000A0E4FEAD12154F801F085EA00654FEA10
:101350002563DAF8A00000F10400CAF8A000DAF86A
:101360000010B8F580685CBF19F8010B51F820F047
:10137000DAF888F019F801CB19F8010B4CEA002CC7
:101380000CF460410FF2080E4FEAD12154F801F03D
:10139000400848F0010803460CF460410AF12402B9
:1013A0000FF2080E4FEAD12152F801F0DAF8A0004E
:1013B00000F10600CAF8A000DAF8001078F5C0685D
:1013C0005CBF19F8010B51F820F0DAF888F018F03A
:1013D000400F19F9010B04BF8144A8F58078DAF8B1
:1013E000A00000F10200CAF8A000DAF80010B8F579
:1013F00000785CBF19F8010B51F820F0DAF888F09A
:1014000019F8010B10F80BC0584441784CEA012C34
:101410000CEB176C0CF460410FF2080E4FEAD1216F
:1014200054F801F085EA00654FEA2563DAF8A00078
:1014300000F10500CAF8A000DAF80010B8F5A068BD
:101440005CBF19F8010B51F820F0DAF888F019F8B0
:1014500001CB06EB0C6C4FEA1C601BF8000085EA20
:1014600000654FEA2563DAF8A00000F10400CAF82D
:10147000A000DAF80010B8F580685CBF19F8010B1D
:1014800051F820F0DAF888F019F801CB06EB0C6C73
:101490004FEA1C631BF803305B0848F001084FEA71
:1014A0001C610BF80130DAF8A00000F10600CAF860
:1014B000A000DAF8001078F5C0685CBF19F8010BDD
:1014C00051F820F0DAF888F028F00408DAF8A000E3
:1014D00000F10200CAF8A000DAF80010B8F50078B0
:1014E0005CBF19F8010B51F820F0DAF888F019F810
:1014F00001CB19F8010B4CEA002C0CEB176C0CF427
:1015000060410FF20A0E4FEAD12154F801F085EA4A
:1015100000654FEA2563DAF8A00000F10400CAF87C
:10152000A000DAF80010B8F580685CBF19F8010B6C
:1015300051F820F0DAF888F019F801CB19F8010B0E
:101540004CEA002C0CEB166C0CF460410FF2080E08
:101550004FEAD12154F801F085EA00654FEA25638E
:10156000DAF8A00000F10400CAF8A000DAF80010D0
:10157000B8F580685CBF19F8010B51F820F0DAF873
:1015800088F019F801CB19F8010B4CEA002C0CEB90
:10159000166C0CF460410FF20A0E4FEAD12154F898
:1015A00001F0400848F0010803460CF460410AF1DC
:1015B00024020FF20A0E4FEAD12152F801F0DAF8B4
:1015C000A00000F10700CAF8A000DAF8001078F5D2
:1015D000E0685CBF19F8010B51F820F0DAF888F0E8
:1015E0009AF8802002F102028AF88020DAF880203E
:1015F00012F8010942F4807292F8009049EA002939
:1016000009F1010909F460410AF144024FEAD120CD
:101610001058CAF884008144DAF8A00000F10600EE
:10162000CAF8A000DAF80010B8F5C0685CBF19F875
:10163000010B51F820F0DAF888F019F8010B06EBED
:1016400000604FEA106C1BF80CC000F180704FEA8C
:1016500010611BF801104CEA012C0CF460410FF2F0
:101660000A0E4FEAD12154F801F05FEA580128BF71
:10167000A0F5807055EB30254FEA256348F041080E
:1016800078BF28F04008DAF8A00000F10600CAF898
:10169000A000DAF8001078F5C0685CBF19F8010BFB
:1016A00051F820F0DAF888F019F801CB1BF80C009B
:1016B0005FEA580128BFA0F5807055EB30254FEA4E
:1016C000256348F0410878BF28F04008DAF8A00008
:1016D00000F10300CAF8A000DAF8001078F54078AD
:1016E0005CBF19F8010B51F820F0DAF888F019F80E
:1016F00001CB1BF80C005FEA580828BF40F480704B
:10170000400840EA006348EB08080BF80C00DAF8E0
:10171000A00000F10500CAF8A000DAF80010B8F542
:10172000A0685CBF19F8010B51F820F0DAF888F0D6
:101730009AF8802002F101028AF8802042F4807237
:101740001BF902304FEA0365DAF8A00000F104004B
:10175000CAF8A000DAF80010B8F580685CBF19F884
:10176000010B51F820F0DAF888F019F8010B5FEA64
:10177000580128BFA0F5807055EB30254FEA25634E
:1017800048F0410878BF28F04008DAF8A00000F1DE
:101790000200CAF8A000DAF8001078F500785CBF03
:1017A00019F8010B51F820F0DAF888F05FEA5808D0
:1017B0004FEA35052B1605F07F4548EB0808DAF8A7
:1017C000A00000F10200CAF8A000DAF80010B8F595
:1017D00000785CBF19F8010B51F820F0DAF888F0B6
:1017E00019F801CB19F8010B4CEA002C0AF144015D
:1017F0000CF460424FEAD220095811F80C90614471
:10180000487849EA002909F460410AF144024FEAA4
:10181000D1201058CAF884008144DAF8A00000F101
:101820000500CAF8A000DAF80010B8F5A0685CBF9F
:1018300019F8010B51F820F0DAF888F019F801CB0B
:1018400019F8010B4CEA002C0CF460410FF2080E61
:101850004FEAD12154F801F05FEA580128BFA0F502
:10186000807055EB30254FEA256348F0410878BF7A
:1018700028F04008DAF8A00000F10400CAF8A0003F
:10188000DAF8001078F580685CBF19F8010B51F8A0
:1018900020F0DAF888F019F801CB19F8010B4CEABE
:1018A000002C0CF460410FF20A0E4FEAD12154F8DB
:1018B00001F05FEA580828BF40F48070400840EA11
:1018C000006348EB08080CF460410AF124020FF2AF
:1018D0000A0E4FEAD12152F801F0DAF8A00000F127
:1018E0000600CAF8A000DAF80010B8F5C0685CBFBE
:1018F00019F8010B51F820F0DAF888F018F0400FD1
:1019000019F9010B1CBF8144A8F58078DAF8A00012
:1019100000F10200CAF8A000DAF80010B8F500786B
:101920005CBF19F8010B51F820F0DAF888F019F8CB
:10193000010B10F80BC0584441784CEA012C0CEB19
:10194000176C0CF460410FF20A0E4FEAD12154F8E3
:1019500001F05FEA580128BFA0F5807055EB3025F3
:101960004FEA256348F0410878BF28F04008DAF8CC
:10197000A00000F10500CAF8A000DAF8001078F520
:10198000A0685CBF19F8010B51F820F0DAF888F074
:1019900019F801CB06EB0C6C4FEA1C601BF8000039
:1019A0005FEA580128BFA0F5807055EB30254FEA5B
:1019B000256348F0410878BF28F04008DAF8A00015
:1019C00000F10400CAF8A000DAF8001078F5806889
:1019D0005CBF19F8010B51F820F0DAF888F019F81B
:1019E00001CB06EB0C6C4FEA1C601BF800005FEAB1
:1019F000580828BF40F48070400840EA006348EB74
:101A000008084FEA1C610BF80100DAF8A00000F1A9
:101A10000600CAF8A000DAF80010B8F5C0685CBF8C
:101A200019F8010B51F820F0DAF888F048F00408B2
:101A3000DAF8A00000F10200CAF8A000DAF80010FD
:101A4000B8F500785CBF19F8010B51F820F0DAF80E
:101A500088F019F801CB19F8010B4CEA002C0CEBBB
:101A6000176C0CF460410FF20A0E4FEAD12154F8C2
:101A700001F05FEA580128BFA0F5807055EB3025D2
:101A80004FEA256348F0410878BF28F04008DAF8AB
:101A9000A00000F10400CAF8A000DAF8001078F500
:101AA00080685CBF19F8010B51F820F0DAF888F073
:101AB00019F801CB19F8010B4CEA002C0CEB166C51
:101AC0000CF460410FF2080E4FEAD12154F801F0F6
:101AD0005FEA580128BFA0F5807055EB30254FEA2A
:101AE000256348F0410878BF28F04008DAF8A000E4
:101AF00000F10400CAF8A000DAF8001078F5806858
:101B00005CBF19F8010B51F820F0DAF888F019F8E9
:101B100001CB19F8010B4CEA002C0CEB166C0CF401
:101B200060410FF20A0E4FEAD12154F801F05FEA4A
:101B3000580828BF40F48070400840EA006348EB32
:101B400008080CF460410AF124020FF20A0E4FEA71
:101B5000D12152F801F0DAF8A00000F10700CAF82C
:101B6000A000DAF80010B8F5E0685CBF19F8010BC6
:101B700051F820F0DAF888F019F8010B06EB006054
:101B80004FEA106C1BF80CC000F180704FEA106136
:101B90001BF801104CEA012C4FEA15600CF460416F
:101BA0000AF124020FF2080E4FEAD12152F801F097
:101BB000DAF8A00000F10600CAF8A000DAF8001078
:101BC000B8F5C0685CBF19F8010B51F820F0DAF8DD
:101BD00088F019F801CB4FEA17600BF80C00DAF81F
:101BE000A00000F10300CAF8A000DAF80010B8F570
:101BF00040785CBF19F8010B51F820F0DAF888F052
:101C000019F801CB4FEA15600BF80C00DAF8A000C8
:101C100000F10300CAF8A000DAF80010B8F5407827
:101C20005CBF19F8010B51F820F0DAF888F019F8C8
:101C300001CB4FEA16600BF80C00DAF8A00000F1B7
:101C40000300CAF8A000DAF80010B8F540785CBFCD
:101C500019F8010B51F820F0DAF888F0A7F1807735
:101C60004FEA2763DAF8A00000F10200CAF8A000EA
:101C7000DAF80010B8F500785CBF19F8010B51F8DC
:101C800020F0DAF888F035464FEA2663DAF8A0004B
:101C900000F10200CAF8A000DAF80010B8F50078E8
:101CA0005CBF19F8010B51F820F0DAF888F019F848
:101CB00001CB19F8010B4CEA002C4FEA17600CF429
:101CC00060410AF124020FF20A0E4FEAD12152F8C4
:101CD00001F0DAF8A00000F10400CAF8A000DAF878
:101CE0000010B8F580685CBF19F8010B51F820F0BE
:101CF000DAF888F019F801CB19F8010B4CEA002C3E
:101D00004FEA15600CF460410AF124020FF2080E4C
:101D10004FEAD12152F801F0DAF8A00000F10400F6
:101D2000CAF8A000DAF80010B8F580685CBF19F8AE
:101D3000010B51F820F0DAF888F019F801CB19F806
:101D4000010B4CEA002C4FEA16600CF460410AF1DA
:101D500024020FF20A0E4FEAD12152F801F0DAF80C
:101D6000A00000F10400CAF8A000DAF80010B8F5ED
:101D700080685CBF19F8010B51F820F0DAF888F0A0
:101D800018F0010F19F9010B04BF8144A8F5807800
:101D9000DAF8A00000F10200CAF8A000DAF800109A
:101DA000B8F500785CBF19F8010B51F820F0DAF8AB
:101DB00088F019F8010B10F80BC0584441784CEA30
:101DC000012C0CEB176C4FEA15600CF460410AF122
:101DD00024020FF20A0E4FEAD12152F801F0DAF88C
:101DE000A00000F10600CAF8A000DAF80010B8F56B
:101DF000C0685CBF19F8010B51F820F0DAF888F0E0
:101E000019F801CB06EB0C6C4FEA17604FEA1C6126
:101E10000BF80100DAF8A00000F10400CAF8A000F5
:101E2000DAF80010B8F580685CBF19F8010B51F8BA
:101E300020F0DAF888F019F801CB06EB0C6C4FEAC9
:101E400015604FEA1C610BF80100DAF8A00000F100
:101E50000400CAF8A000DAF80010B8F580685CBF8A
:101E600019F8010B51F820F0DAF888F019F801CBD5
:101E700007EB0C6C4FEA16604FEA1C610BF801008F
:101E8000DAF8A00000F10400CAF8A000DAF80010A7
:101E9000B8F580685CBF19F8010B51F820F0DAF84A
:101EA00088F03D464FEA2763DAF8A00000F102000F
:101EB000CAF8A000DAF80010B8F500785CBF19F88D
:101EC000010B51F820F0DAF888F019F801CB19F875
:101ED000010B4CEA002C0CEB176C4FEA15600CF46C
:101EE00060410AF124020FF20A0E4FEAD12152F8A2
:101EF00001F0DAF8A00000F10500CAF8A000DAF855
:101F00000010B8F5A0685CBF19F8010B51F820F07B
:101F1000DAF888F04FEA16608AF88000DAF8A00054
:101F200000F10200CAF8A000DAF80010B8F5007855
:101F30005CBF19F8010B51F820F0DAF888F019F8B5
:101F400001CB19F8010B4CEA002C0CEB166C4FEA94
:101F500015600CF460410AF124020FF20A0E4FEAF8
:101F6000D12152F801F0DAF8A00000F10500CAF81A
:101F7000A000DAF80010B8F5A0685CBF19F8010BF2
:101F800051F820F0DAF888F019F9013B4FEA0367BD
:101F9000DAF8A00000F10200CAF8A000DAF8001098
:101FA000B8F500785CBF19F8010B51F820F0DAF8A9
:101FB00088F019F8010B06EB00604FEA106C1BF873
:101FC0000CC000F180704FEA10611BF801104CEA60
:101FD000012C0CF460410FF20A0E4FEAD12154F8A3
:101FE00001F040EA00634FEA0365DAF8A00000F16F
:101FF0000600CAF8A000DAF80010B8F5C0685CBFA7
:1020000019F8010B51F820F0DAF888F019F9013BC2
:102010004FEA0366DAF8A00000F10200CAF8A00057
:10202000DAF80010B8F500785CBF19F8010B51F828
:1020300020F0DAF888F019F801CB1BF90C304FEAE0
:102040000367DAF8A00000F10300CAF8A000DAF88C
:102050000010B8F540785CBF19F8010B51F820F07A
:10206000DAF888F019F801CB1BF90C304FEA036558
:10207000DAF8A00000F10300CAF8A000DAF80010B6
:10208000B8F540785CBF19F8010B51F820F0DAF888
:1020900088F019F801CB1BF90C304FEA0366DAF827
:1020A000A00000F10300CAF8A000DAF80010B8F5AB
:1020B00040785CBF19F8010B51F820F0DAF888F08D
:1020C0002F464FEA2763DAF8A00000F10200CAF8B1
:1020D000A000DAF80010B8F500785CBF19F8010B21
:1020E00051F820F0DAF888F019F9013B4FEA03655E
:1020F000DAF8A00000F10200CAF8A000DAF8001037
:10210000B8F500785CBF19F8010B51F820F0DAF847
:1021100088F02E464FEA2663DAF8A00000F10200AC
:10212000CAF8A000DAF80010B8F500785CBF19F81A
:10213000010B51F820F0DAF888F019F801CB19F802
:10214000010B4CEA002C0CF460410FF20A0E4FEA2E
:10215000D12154F801F040EA00634FEA0367DAF84E
:10216000A00000F10400CAF8A000DAF80010B8F5E9
:1021700080685CBF19F8010B51F820F0DAF888F09C
:1021800019F801CB19F8010B4CEA002C0CF4604152
:102190000FF2080E4FEAD12154F801F040EA006333
:1021A0004FEA0365DAF8A00000F10400CAF8A000C5
:1021B000DAF80010B8F580685CBF19F8010B51F827
:1021C00020F0DAF888F019F801CB19F8010B4CEA85
:1021D000002C0CF460410FF20A0E4FEAD12154F8A2
:1021E00001F040EA00634FEA0366DAF8A00000F16C
:1021F0000400CAF8A000DAF80010B8F580685CBFE7
:1022000019F8010B51F820F0DAF888F018F0010FF6
:1022100019F9010B1CBF8144A8F58078DAF8A000F9
:1022200000F10200CAF8A000DAF80010B8F5007852
:102230005CBF19F8010B51F820F0DAF888F019F8B2
:10224000010B10F80BC0584441784CEA012C0CEB00
:10225000176C0CF460410FF20A0E4FEAD12154F8CA
:1022600001F040EA00634FEA0365DAF8A00000F1EC
:102270000500CAF8A000DAF80010B8F5A0685CBF45
:1022800019F8010B51F820F0DAF888F019F801CBB1
:102290000CEB166C0CF0FF0C1BF90C304FEA0367CB
:1022A000DAF8A00000F10400CAF8A000DAF8001083
:1022B000B8F580685CBF19F8010B51F820F0DAF826
:1022C00088F019F801CB0CEB166C0CF0FF0C1BF925
:1022D0000C304FEA0365DAF8A00000F10400CAF8F8
:1022E000A000DAF80010B8F580685CBF19F8010B9F
:1022F00051F820F0DAF888F019F801CB0CEB176CE4
:102300000CF0FF0C1BF90C304FEA0366DAF8A00062
:1023100000F10400CAF8A000DAF80010B8F58068EF
:102320005CBF19F8010B51F820F0DAF888F028F0BA
:102330004008DAF8A00000F10200CAF8A000DAF8BC
:102340000010B8F500785CBF19F8010B51F820F0C7
:10235000DAF888F019F801CB19F8010B4CEA002CD7
:102360000CEB176C0CF460410FF2080E4FEAD12110
:1023700054F801F040EA00634FEA0365DAF8A00080
:1023800000F10400CAF8A000DAF80010B8F580687F
:102390005CBF19F8010B51F820F0DAF888F09AF8D0
:1023A00080604FEA06664FEA2663DAF8A00000F183
:1023B0000200CAF8A000DAF80010B8F500785CBF97
:1023C00019F8010B51F820F0DAF888F019F801CB70
:1023D00019F8010B4CEA002C0CEB166C0CF4604164
:1023E0000FF2080E4FEAD12154F801F040EA0063E1
:1023F0004FEA0367DAF8A00000F10400CAF8A00071
:10240000DAF80010B8F580685CBF19F8010B51F8D4
:1024100020F0DAF888F019F801CB19F8010B4CEA32
:10242000002C0CEB166C0CF460410FF20A0E4FEA14
:10243000D12154F801F040EA00634FEA0365DAF86D
:10244000A00000F10400CAF8A000DAF80010B8F506
:1024500080685CBF19F8010B51F820F0DAF888F0B9
:1024600019F801CB19F8010B4CEA002C0CEB176C96
:102470000CF460410FF2080E4FEAD12154F801F03C
:1024800040EA00634FEA0366DAF8A00000F10400B6
:10249000CAF8A000DAF80010B8F580685CBF19F837
:1024A000010B51F820F0DAF888F019F8010BB7EBBE
:1024B00000634FEA236348F00108DAF8A00000F156
:1024C0000200CAF8A000DAF8001078F500785CBFC6
:1024D00019F8010B51F820F0DAF888F019F8010B1F
:1024E00006EB00604FEA106C1BF80CC000F1807026
:1024F0004FEA10611BF801104CEA012C0CF460410A
:102500000FF2080E4FEAD12154F801F0B5EB006349
:102510004FEA236348F00108DAF8A00000F1060052
:10252000CAF8A000DAF8001078F5C0685CBF19F8A6
:10253000010B51F820F0DAF888F019F801CB1BF8FC
:102540000C00B7EB00634FEA236348F00108DAF8A8
:10255000A00000F10300CAF8A000DAF8001078F536
:1025600040785CBF19F8010B51F820F0DAF888F0D8
:1025700019F801CB1BF80C00B5EB00634FEA23639D
:1025800048F00108DAF8A00000F10300CAF8A00042
:10259000DAF8001078F540785CBF19F8010B51F8B3
:1025A00020F0DAF888F019F801CB1BF80C00A0F144
:1025B000010040EA00630BF80C00DAF8A00000F11B
:1025C0000500CAF8A000DAF80010B8F5A0685CBFF2
:1025D00019F8010B51F820F0DAF888F007F180774C
:1025E0004FEA2763DAF8A00000F10200CAF8A00061
:1025F000DAF80010B8F500785CBF19F8010B51F853
:1026000020F0DAF888F019F8010BB5EB00634FEA17
:10261000236348F00108DAF8A00000F10200CAF8CC
:10262000A000DAF8001078F500785CBF19F8010B0B
:1026300051F820F0DAF888F0A6F180764FEA2663A8
:10264000DAF8A00000F10200CAF8A000DAF80010E1
:10265000B8F500785CBF19F8010B51F820F0DAF8F2
:1026600088F019F801CB19F8010B4CEA002C0CF496
:1026700060410FF20A0E4FEAD12154F801F0B7EB96
:1026800000634FEA236348F00108DAF8A00000F184
:102690000400CAF8A000DAF8001078F580685CBF82
:1026A00019F8010B51F820F0DAF888F019F801CB8D
:1026B00019F8010B4CEA002C0CF460410FF2080EE3
:1026C0004FEAD12154F801F0B5EB00634FEA2363E0
:1026D00048F00108DAF8A00000F10400CAF8A000F0
:1026E000DAF8001078F580685CBF19F8010B51F832
:1026F00020F0DAF888F019F801CB19F8010B4CEA50
:10270000002C0CF460410FF20A0E4FEAD12154F86C
:1027100001F0A0F1010040EA00630CF460410AF10D
:1027200024020FF20A0E4FEAD12152F801F0DAF832
:10273000A00000F10600CAF8A000DAF80010B8F511
:10274000C0685CBF19F8010B51F820F0DAF888F086
:1027500013F0FF0F19F9010B1CBF8144A8F5807815
:10276000DAF8A00000F10200CAF8A000DAF80010C0
:10277000B8F500785CBF19F8010B51F820F0DAF8D1
:1027800088F019F8010B10F80BC0584441784CEA56
:10279000012C0CEB176C0CF460410FF20A0E4FEA9F
:1027A000D12154F801F0B5EB00634FEA236348F000
:1027B0000108DAF8A00000F10500CAF8A000DAF874
:1027C000001078F5A0685CBF19F8010B51F820F0F3
:1027D000DAF888F019F801CB06EB0C6C4FEA1C60B4
:1027E0001BF80000B5EB00634FEA236348F00108D3
:1027F000DAF8A00000F10400CAF8A000DAF800102E
:1028000078F580685CBF19F8010B51F820F0DAF810
:1028100088F019F801CB06EB0C6C4FEA1C601BF832
:102820000000A0F1010040EA00634FEA1C610BF8D0
:102830000100DAF8A00000F10600CAF8A000DAF8FA
:102840000010B8F5C0685CBF19F8010B51F820F012
:10285000DAF888F028F00808DAF8A00000F10200A1
:10286000CAF8A000DAF80010B8F500785CBF19F8D3
:10287000010B51F820F0DAF888F019F801CB19F8BB
:10288000010B4CEA002C0CEB176C0CF460410FF2BE
:102890000A0E4FEAD12154F801F0B5EB00634FEA7C
:1028A000236348F00108DAF8A00000F10400CAF838
:1028B000A000DAF8001078F580685CBF19F8010B09
:1028C00051F820F0DAF888F019F801CB19F8010B6B
:1028D0004CEA002C0CEB166C0CF460410FF2080E65
:1028E0004FEAD12154F801F0B5EB00634FEA2363BE
:1028F00048F00108DAF8A00000F10400CAF8A000CE
:10290000DAF8001078F580685CBF19F8010B51F80F
:1029100020F0DAF888F019F801CB19F8010B4CEA2D
:10292000002C0CEB166C0CF460410FF20A0E4FEA0F
:10293000D12154F801F0A0F1010040EA00630CF449
:1029400060410AF124020FF20A0E4FEAD12152F837
:1029500001F0DAF8A00000F10700CAF8A000DAF8E8
:102960000010B8F5E0685CBF19F8010B51F820F0D1
:10297000DAF888F019F8010BB6EB00634FEA23632D
:1029800048F00108DAF8A00000F10200CAF8A0003F
:10299000DAF8001078F500785CBF19F8010B51F8EF
:1029A00020F0DAF888F019F8010B06EB00604FEA26
:1029B000106C1BF80CC000F180704FEA10611BF81E
:1029C00001104CEA012C0CF460410FF20A0E4FEAA0
:1029D000D12154F801F05FEA580175EB006505F06C
:1029E0007F454FEA256348F0410878BF28F040084A
:1029F000DAF8A00000F10600CAF8A000DAF800102A
:102A000078F5C0685CBF19F8010B51F820F0DAF8CE
:102A100088F019F801CB1BF80C00B6EB00634FEA05
:102A2000236348F00108DAF8A00000F10300CAF8B7
:102A3000A000DAF8001078F540785CBF19F8010BB7
:102A400051F820F0DAF888F019F801CB1BF80C00E7
:102A50005FEA580175EB006505F07F454FEA256395
:102A600048F0410878BF28F04008DAF8A00000F1EB
:102A70000300CAF8A000DAF8001078F540785CBFCF
:102A800019F8010B51F820F0DAF888F019F801CBA9
:102A90001BF80C0000F1010040EA00630BF80C0089
:102AA000DAF8A00000F10500CAF8A000DAF800107A
:102AB000B8F5A0685CBF19F8010B51F820F0DAF8FE
:102AC00088F006F180764FEA2663DAF8A00000F17C
:102AD0000200CAF8A000DAF80010B8F500785CBF70
:102AE00019F8010B51F820F0DAF888F019F8010B09
:102AF0005FEA580175EB006505F07F454FEA2563F5
:102B000048F0410878BF28F04008DAF8A00000F14A
:102B10000200CAF8A000DAF8001078F500785CBF6F
:102B200019F8010B51F820F0DAF888F0DAF8A00073
:102B300000F10200CAF8A000DAF80010B8F5007839
:102B40005CBF19F8010B51F820F0DAF888F019F899
:102B500001CB19F8010B4CEA002C0CF460410FF288
:102B60000A0E4FEAD12154F801F0B6EB00634FEAA8
:102B7000236348F00108DAF8A00000F10400CAF865
:102B8000A000DAF8001078F580685CBF19F8010B36
:102B900051F820F0DAF888F019F801CB19F8010B98
:102BA0004CEA002C0CF460410FF2080E4FEAD121E0
:102BB00054F801F05FEA580175EB006505F07F45B8
:102BC0004FEA256348F0410878BF28F04008DAF85A
:102BD000A00000F10400CAF8A000DAF8001078F5AF
:102BE00080685CBF19F8010B51F820F0DAF888F022
:102BF00019F801CB19F8010B4CEA002C0CF46041D8
:102C00000FF2080E4FEAD12154F801F000F1010053
:102C100040EA00630CF460410AF124020FF2080E4E
:102C20004FEAD12152F801F0DAF8A00000F10600D5
:102C3000CAF8A000DAF80010B8F5C0685CBF19F84F
:102C4000010B51F820F0DAF888F013F0FF0F19F9B2
:102C5000010B04BF8144A8F58078DAF8A00000F1E8
:102C60000200CAF8A000DAF80010B8F500785CBFDE
:102C700019F8010B51F820F0DAF888F019F8010B77
:102C800010F80BC0584441784CEA012C0CEB176C3F
:102C90000CF460410FF2080E4FEAD12154F801F014
:102CA0005FEA580175EB006505F07F454FEA256343
:102CB00048F0410878BF28F04008DAF8A00000F199
:102CC0000500CAF8A000DAF8001078F5A0685CBF2B
:102CD00019F8010B51F820F0DAF888F019F801CB57
:102CE00006EB0C6C4FEA1C601BF800005FEA580111
:102CF00075EB006505F07F454FEA256348F0410814
:102D000078BF28F04008DAF8A00000F10400CAF803
:102D1000A000DAF8001078F580685CBF19F8010BA4
:102D200051F820F0DAF888F019F801CB06EB0C6CBA
:102D30004FEA1C601BF8000000F1010040EA00634C
:102D40004FEA1C610BF80100DAF8A00000F1060060
:102D5000CAF8A000DAF80010B8F5C0685CBF19F82E
:102D6000010B51F820F0DAF888F048F00808DAF89A
:102D7000A00000F10200CAF8A000DAF80010B8F5CF
:102D800000785CBF19F8010B51F820F0DAF888F0F0
:102D900019F801CB19F8010B4CEA002C0CEB176C5D
:102DA0000CF460410FF2080E4FEAD12154F801F003
:102DB0005FEA580175EB006505F07F454FEA256332
:102DC00048F0410878BF28F04008DAF8A00000F188
:102DD0000400CAF8A000DAF8001078F580685CBF3B
:102DE00019F8010B51F820F0DAF888F019F801CB46
:102DF00019F8010B4CEA002C0CEB166C0CF460413A
:102E00000FF2080E4FEAD12154F801F05FEA5801A1
:102E100075EB006505F07F454FEA256348F04108F2
:102E200078BF28F04008DAF8A00000F10400CAF8E2
:102E3000A000DAF8001078F580685CBF19F8010B83
:102E400051F820F0DAF888F019F801CB19F8010BE5
:102E50004CEA002C0CEB166C0CF460410FF2080EDF
:102E60004FEAD12154F801F000F1010040EA00637B
:102E70000CF460410AF124020FF2080E4FEAD1214E
:102E800052F801F0DAF8A00000F10700CAF8A0003B
:102E9000DAF80010B8F5E0685CBF19F8010B51F8DA
:102EA00020F0DAF888F019F801CB19F8010B4CEA98
:102EB000002C0CEB166C0CF460410FF20A0E4FEA7A
:102EC000D12154F801F05FEA580175EB006505F077
:102ED0007F454FEA256348F0410878BF28F0400855
:102EE000DAF8A00000F10500CAF8A000DAF8001036
:102EF000B8F5A0685CBF19F8010B51F820F0DAF8BA
:102F000088F019F801CB19F8010B4CEA002C0CEBF6
:102F1000176C0CF460410FF20A0E4FEAD12154F8FD
:102F200001F05FEA580175EB006505F07F454FEA57
:102F3000256348F0410878BF28F04008DAF8A0007F
:102F400000F10500CAF8A000DAF80010B8F5A06892
:102F50005CBF19F8010B51F820F0DAF888F009F19C
:102F60000109DAF8A00000F10400CAF8A000DAF8BC
:102F70000010B8F580685CBF19F8010B51F820F01B
:102F8000DAF888F019F801CB1BF80C005FEA580159
:102F900028BFA0F5807055EB30254FEA256348F037
:102FA000410878BF28F04008DAF8A00000F10500D9
:102FB000CAF8A000DAF80010B8F5A0685CBF19F8EC
:102FC000010B51F820F0DAF888F019F8010B06EB44
:102FD00000604FEA106C1BF80CC000F180704FEAE3
:102FE00010611BF801104CEA012CDAF8A00000F186
:102FF0000800CAF8A000DAF80010B8F500685CBF55
:1030000019F8010B51F820F0DAF888F019F801CB23
:10301000DAF8A00000F10500CAF8A000DAF8001004
:10302000B8F5A0685CBF19F8010B51F820F0DAF888
:1030300088F04FF001010FF04EFCDAF8A00000F12B
:103040000200CAF8A000DAF80010B8F500785CBFFA
:1030500019F8010B51F820F0DAF888F05D07000844
:10306000C707000833300008CB2F000833300008B2
:1030700021080008530800080D3000088B080008DC
:10308000D508000803090008333000083330000871
:103090002F0900087509000833300008D10900081D
:1030A000030A000833300008333000085F2F00089F
:1030B000510A00088B0A000833300008CF0A0008C4
:1030C000F50A0008333000083330000833300008B8
:1030D0003F0B0008890B000833300008E90B00089B
:1030E0004B0C00083330000833300008A50C0008F2
:1030F000E50C0008170D000833300008550D0008D6
:103100009F0D0008CD0D000833300008030E0008A5
:10311000570E00089D0E000833300008FF0E00080F
:10312000310F000833300008333000083330000816
:103130007F0F0008B90F00083330000803100008A3
:1031400029100008333000083330000833300008FD
:1031500073100008BD100008333000082311000868
:10316000A111000833300008333000083330000864
:10317000FB1100082D12000833300008611200080E
:1031800093120008C112000833300008ED12000845
:103190002F1300087513000833300008CF13000800
:1031A00001140008333000083330000833300008C1
:1031B0004F1400088914000833300008C9140008AF
:1031C000EF140008333000083330000833300008B3
:1031D000391500088315000833300008E115000890
:1031E0003B16000833300008333000083330000845
:1031F000A9160008EF160008852F000831170008EF
:103200006B170008AD17000833300008E1170008FD
:103210003D1800089718000833300008FD18000812
:103220002F1900083330000833300008333000080D
:1032300091190008DF190008333000082D1A000822
:10324000531A0008333000083330000833300008C8
:10325000B11A00080F1B0008333000083330000893
:10326000791B00083330000833300008D31B0008F6
:10327000011C00082F1C0008333000085D1C0008EA
:1032800033300008871C000833300008AF1C0008EA
:10329000F51C00083B1D000833300008811D0008A4
:1032A000B31D00083330000833300008011E000849
:1032B000371E00086D1E000833300008A31E0008EA
:1032C000CB1E0008151F00083330000833300008FB
:1032D0003F1F00083330000833300008891F000802
:1032E000B31F00080D200008333000083720000805
:1032F000652000089320000833300008C120000832
:10330000E920000813210008333000083B210008A1
:1033100081210008C7210008333000080D22000871
:103320003F22000833300008333000088D220008A7
:10333000C3220008F9220008333000082F230008B8
:10334000552300089F23000833300008CD230008D0
:10335000172400086124000833300008AB2400085B
:10336000DD24000833300008333000083B25000816
:1033700071250008A725000833300008DD25000866
:1033800007260008392600083330000863260008A5
:10339000AD260008F7260008333000085127000842
:1033A000832700083330000833300008333000082A
:1033B000D5270008132800083330000855280008D6
:1033C0007B28000833300008333000083330000811
:1033D000C92800081729000833300008752900089B
:1033E000A72900083330000833300008132A0008EA
:1033F000492A00088D2A000833300008C32A000833
:10340000ED2A00082D2B0008333000084F2B000850
:10341000992B0008F12B0008333000084B2C0008D2
:103420007D2C0008333000083330000833300008AA
:10343000DD2C0008292D0008333000086B2D000812
:10344000912D000833300008032F000833300008A6
:10345000ED2D0008492E0008A72E00082DE9F04F99
:10346000DFF880A1DFF880B1DBF800B00AF1640179
:1034700091E8F80380449AF8A800012836D0DAF8D9
:10348000A00000F10000CAF8A000DAF80010B8F1BE
:1034900000085CBF19F8010B51F820F0DAF888F049
:1034A0009AF8A400012805D00AF1640080E8F80326
:1034B000BDE8F08F4FF00000CAF8A4004FF6FA7C88
:1034C00000F030F8A8F5E068EEE7DAF8A00000F1C7
:1034D0000000CAF8A000DAF80010B8F100085CBFDC
:1034E00019F8010B51F820F0DAF888F018F0040F01
:1034F000EBD14FF00000CAF8A8004FF6FE7C00F0B8
:1035000011F8DAF8A00000F10700CAF8A000DAF814
:103510000010B8F5E0685CBF19F8010B51F820F015
:10352000DAF888F0DAF88400A9EB00004FEA1021FD
:10353000DAF8802002F8011942F4807202F80109D9
:103540008AF8802008F04D0013F0004F18BF40F0BB
:10355000800013F0FF0F08BF40F0020040F0200091
:10356000DAF8802002F801098AF8802048F004087F
:10357000DAF8600010F80C906044427849EA0229B9
:1035800009F460410AF144024FEAD1201058CAF808
:103590008400814470474DF804ED4FF000054FF072
:1035A00000064FF000074FF000030AF104040E4834
:1035B000006800F58070CAF880004FF00000CAF87B
:1035C000A400CAF8A8004FF000084FF6FC7CFFF7F3
:1035D000A9FF0AF1640080E8F8030449CAF88810DA
:1035E0005DF804FB0006002088050020A1340008D7
:1035F000464910B54A6822F440324A604A68436836
:103600001A434A6001684A6822F480724A6001687D
:103610004A68036942EA03224A6001684A6822F064
:1036200040724A6001684A6883681A434A600168C8
:103630008A6822F400628A6001688A68C3681A4353
:103640008A60816A6FF07062D14201688A6822F0F4
:1036500070628A6001688A680CD0836A1A438A6043
:1036600001688A6822F040528A6001688A68C36AE9
:103670001A4301E022F040528A6001688A6822F011
:1036800002028A6001688A68037E42EA43028A6015
:1036900090F82010002901684A680FD042F40062B7
:1036A0004A6001684A6822F460424A6001684A68D8
:1036B000174C436A04EB43331A4301E022F40062DF
:1036C0004A600168CA6A22F47002CA620168CA6A62
:1036D000838B104C04EB03531A43CA6201688A6857
:1036E00022F400728A6001688A6890F8303042EAF9
:1036F00043228A6001688A6822F480628A600168D5
:103700008A68406942EA8020886010BD0023014039
:1037100000E0FFFF0000F0FF1549002009680A796A
:1037200012B18A6B02B1012091F848201AB1CA6F18
:103730000AB140F0020091F88B2022B1D1F8A0200C
:103740000AB140F0040091F8AB2022B1D1F8C420B6
:103750000AB140F0080091F8D0200AB140F0100002
:1037600091F8F310002901D040F08000704700006C
:10377000A40500200EB5064A41F480411268CDE947
:1037800000218DF8080068460EF022F80EBD0000FA
:10379000A00600200EB5094BC0F3001241F4804191
:1037A0001B6883F8D020064A1268CDE900218DF805
:1037B000080068460EF00CF80EBD0000A4050020BD
:1037C000A00600207047FEE72DE9FE4F3C4C022783
:1037D0001026217900254FF6FF704FF03A09012994
:1037E00037D0022933D125716571A571E5718DE856
:1037F000E0008246024664210023084604F0AEFF42
:10380000CDF80090CDE90165C846002352466421F9
:10381000782004F003FFA07900238DE8C100524610
:103820006421822004F09AFFCDF80080CDE9016583
:10383000002352466421962004F0F0FE60790023B4
:103840008DE8C10052466421A02004F087FFBDE846
:10385000FE8F61793B290ED96571A179491CC9B2E6
:10386000A1713B2907D9A571E179491CC9B2E17160
:10387000172900D9E571E17982468DE8C200024638
:1038800064210023084604F069FFA8464D468DE8F0
:103890006001002352466421782004F0BFFEA07925
:1038A00000238DE8C10052466421822004F056FFB7
:1038B0008DE860010023642152469620BCE7000099
:1038C0006B01002003480179012902D14179491C8B
:1038D000417170476B01002010B52FA13148FCF7F2
:1038E000DBFC304830A11430FCF7D6FC2D4831A168
:1038F0002830FCF7D1FC2B4831A13C30FCF7CCFC44
:103900002848002150300422018042800C2343814A
:103910008180C1800281014601232A22503800F0B3
:1039200055F8294C04F0B8FB2088010605D520F095
:103930008000012320802D2228E0410605D520F0BB
:103940004000012320802B2220E0810602D520F0B8
:10395000200003E0C10603D520F010002080E1E73D
:10396000C10504D580B220F48070208010BDC1074D
:10397000D8D020F001002080002004F02BFC00F0C3
:1039800015F9002004F026FC01232A2205490548E8
:10399000503100F01BF8C5E7C9E8D6C3C8D5C6DA70
:1039A00000000000FC660020C9E8D6C3CAB1BCE430
:1039B00000000000C9E8D6C3C4D6D6D3000000007A
:1039C000C3EBB1ED00000000380100202DE9F84301
:1039D00098460C4607464FF478494FF6FF752B2A58
:1039E00007D02D2A64D02A2A41D1012B3FD1A688A5
:1039F000D8E02089E188421E914225DA491C88B22C
:103A0000E080012B33D100EB800107EB81011439F9
:103A10000091A1880023401A401E00EB800005EAB7
:103A200080012A46184601F097F8E0884A4600EBE4
:103A3000800107EB81010091A188401A00EB800012
:103A400005EA800100235BE0618888420FD20020F4
:103A500004F0C0FBA088401C86B2A680E088401C11
:103A6000E0802089401C2081B8F1010F1CD0BDE806
:103A7000F883E088B04206EB860007EB80000090F8
:103A8000A088A6EB000000EB800004D105EA8001CD
:103A900000234A4603E02A4605EA8001002300206D
:103AA00001F05AF8761CB6B22089B042E1D8DEE7C0
:103AB000E188A088814227D9491E89B2E180012B83
:103AC000D5D101EB8102081A07EB820200EB8000DE
:103AD00005EA8001002300924A46184601F03CF8AE
:103AE000E0882A4600EB800107EB81011431009148
:103AF000A188401A401C00EB800005EA80010023E9
:103B0000002001F029F8B2E721888842AFD90020CF
:103B100004F060FBA088401E86B2A680E088401EAC
:103B2000E0802089401E2081B8F1010F1BD09EE764
:103B3000E088B04206EB860007EB80000090A0888A
:103B4000A6EB000000EB800004D105EA8001002311
:103B50004A4603E02A4605EA80010023002000F0DF
:103B6000FBFF761CB6B22089B042E1D87FE7E0883F
:103B7000B04206EB860007EB80000090A088A6EB21
:103B8000000000EB800004D105EA800100234A46D2
:103B900003E02A4605EA80010023002000F0DCFF54
:103BA000761CB6B22089B042E1D860E72DE9FE4F1D
:103BB000FE4D0026DFF8F8932E716E70AE70EE7039
:103BC000B9F8060010244FF6FF78022740B14FF0F5
:103BD0003A0B01284ED002287ED003287DD0FFE08A
:103BE000F34900228C39F34803F090F8EF490022A2
:103BF0000931F04803F068F8DFF8B0A304210AF1B6
:103C0000090A00239AF803004FF4784200F5FA609D
:103C10000090CDE901416421502004F09FFDE6A011
:103C20000090002342466421782000F095FF9AF826
:103C3000010000238DE89100424664218C2004F0AD
:103C40008DFDDEA00090002342466421A42000F0F8
:103C500083FF9AF8020000238DE891004246642118
:103C6000B82004F07BFDD6A00023642100904246DA
:103C7000D0207EE0CE4900228C39CE4803F046F8B1
:103C8000CA4900220931CB4803F01EF8DFF820A30F
:103C90006421AAF18C0A00239AF800004FF47842BC
:103CA0008DE89100084604F059FDCDF800B0CDE94B
:103CB0000146002342466421782004F0AFFC9AF8C4
:103CC000010000238DE8910042466421822004F027
:103CD00045FD0023424601E00BE04FE0CDF800B087
:103CE000CDE901466421962004F098FC9AF8020080
:103CF0006EE0DFF8BCA26421AAF1780A00239AF8EA
:103D000000004FF478428DE89100084604F026FD4B
:103D1000CDF800B0CDE90146002342466421782069
:103D200004F07CFC9AF8010000238DE891004246E3
:103D30006421822004F012FDCDF800B0CDE90146E7
:103D4000002342466421962004F068FC9AF80200A1
:103D500000238DE8910042466421A02004F0FEFC7F
:103D60002878012808D097A00090002342466421BB
:103D7000C82000F0F1FE33E093A0F5E76E71AE715C
:103D8000EE71CDE9006464210023424608460297A3
:103D900004F0E4FCCDF800B0CDE901460023424632
:103DA0006421782004F03AFCA87900238DE8910082
:103DB00042466421822004F0D1FCCDF800B0CDE968
:103DC0000146002342466421962004F027FC6879CE
:103DD00000238DE8910042466421A02004F0BEFC3F
:103DE000DFF8E8A14FF0010B04F056F9BAF8001023
:103DF0000A0670D521F08001AAF80010B9F8060073
:103E000020B1012848D002287ED056E3687820B13E
:103E1000012816D0022827D04FE364480930C17822
:103E2000642901D2491C19E16048042109300023AA
:103E3000C0784FF4784200F5FA600090CDE9014176
:103E40009BE15A48093041780C2901D2491C0DE107
:103E50005648042109300023C078424600F5FA6034
:103E60000090CDE9014191E15048093081781F2946
:103E700001D2491C81704D48042109300023C078CB
:103E8000424600F5FA600090CDE9014143E28DE839
:103E900091006421B82045E0A87820B1012809D01C
:103EA000022819D009E342488C38017817297BD2BF
:103EB000491CF1E03E498C3948783B2801D2401C2E
:103EC00048705AE28DE891006421822004F046FC9B
:103ED00037488C3848E0A4E035498C3988783B284D
:103EE00001D2401CE9E0324864218C38002300787C
:103EF00042468DE89100084604F030FC2C484246CA
:103F00008C380023407800E00FE08DE891006421B8
:103F1000822004F023FC26488C385CE08DE8910078
:103F20006421A02004F01AFCC7E2E87830B101282F
:103F30000BD002281CD0032852D0BEE21C4978398D
:103F4000087817287BD2401CC7E01949783948788F
:103F50003B2875D2401CC7E08DE891006421822087
:103F600004F0FCFB12487838002380784246D5E7FD
:103F70000F49783988783B2801D2401C88700C485A
:103F8000642178380023007842468DE89100084685
:103F900004F0E4FB06480023783864214078424668
:103FA0008DE89100822013E077E000006B01002093
:103FB0004C67002068070020C4EA0000D4C200005B
:103FC000C8D50000B9D80000BFAA00003801002001
:103FD00004F0C4FBFB4800234FF4784280789DE74F
:103FE000F84864210023007842468DE89100084695
:103FF00004F0B4FBF34800234246407864218DE886
:104000009100822004F0AAFBEE480023424680780B
:1040100064218DE89100A02004F0A0FB85F800B099
:1040200032E14A067DD521F04001AAF80010B9F826
:10403000060030B1012822D0022840D03DE24DE0F8
:1040400053E0687820B101280AD0022810D034E269
:10405000DD48C17800293FF4E7AE491EC170E3E6B0
:10406000D948417800293FF4F3AE491E4170EFE68C
:10407000D5498878002801D0401E887041E1A87891
:1040800020B101280AD0022810D016E2CD481438F9
:104090000178002901D0491E01705CE1C94814383B
:1040A0004178002901D0491E417066E1C5491439A3
:1040B000887800283FF417AF401E887013E7E8782F
:1040C00030B101280BD0022810D0032816D0F4E11B
:1040D000BC490878002801D0401E087076E1B94933
:1040E0004878002801D0401E48707FE1B5488178AB
:1040F00000293FF444AF491E817040E7B148642174
:104100000023007842468DE89100084604F026FB23
:10411000AC4800236421407842468DE8910082201B
:1041200000E012E004F01AFBA64800234246807823
:1041300064218DE89100A02004F010FB2E7068E14E
:104140006421C82000F008FDB7E18A0676D521F089
:104150002001AAF80010B9F8060020B101282CD0DF
:10416000022838D0A9E16878A0B3401E10F0FF0003
:1041700068702FD001287DD01CE06421502004F00D
:10418000EDFA914800234246407808E0642150202F
:1041900004F0E4FA8C4800234FF47842407864211C
:1041A0008DE891008C2004F0D9FA8748002342461C
:1041B00080786CE602286FD07FE1A878E8B3401ED3
:1041C00010F0FF00A87038D0012874D002283FF406
:1041D00075AF72E17DE0E87888B3401E10F0FF0013
:1041E000E8702CD0012867D0022829D175486421B5
:1041F0000023007842468DE89100084604F0AEFAAC
:10420000704800234246407864218DE89100822066
:1042100004F0A4FA6B4800234FF4784280786421BC
:104220008DE89100A02004F099FA287898B3AFF2B5
:10423000682000234246009082E78CE02DE0C5E034
:10424000032837D15F4864210023007842468DE877
:104250009100084604F082FA5A480023424640780A
:1042600064218DE89100822004F078FA55480023FB
:10427000807800E03AE08DE8910042466421A02079
:1042800004F06CFA287880B3AFF2C42000234FF416
:104290007842009054E7B9E033E0CA067DD521F0BA
:1042A0001001AAF80010B9F8060030B1012846D074
:1042B000022877D001E160E098E06878022806D211
:1042C000401C10F0FF00687003D001280ED0C0B26F
:1042D00070E73D4904200023C9784FF4784201F586
:1042E000FA61CDE90014029047E792E036490420D4
:1042F0000023C978424601F5FA61CDE90014029025
:1043000044E7314904200023C978424601F5FA61A7
:10431000CDE9001402906421502004F01FFA2A48CD
:1043200000234246407864218DE891008C2004F0FF
:1043300015FA254800234FF478428078A7E5A8783D
:10434000022806D2401C10F0FF00A87003D00128FC
:1043500013D0C0B23AE71B48642114380023007818
:104360004FF478428DE89100084604F0F7F91548BB
:104370004246143800234078A4E5124864211438DA
:104380000023007842468DE89100084604F0E6F9E3
:104390000C4814380023407801E03DE002E04FF47F
:1043A00078428FE5E878032809D2401C10F0FF001E
:1043B000E8700BD0012819D002283FF417AFC0B223
:1043C0003EE70000D4660020740100203E486421CE
:1043D000002300784FF478428DE89100084604F0FD
:1043E000BDF93948002342464078B5E53648642196
:1043F0000023007842468DE89100084604F0AEF9AB
:10440000314800234FF478424078A5E5AFF24C40A4
:104410000FE7AFF2504039E7CA0506D589B221F45B
:104420008071AAF80010BDE8FE8F8A070AD5B9F896
:104430000600E0B3012840D002283ED003283CD13A
:104440002F713AE0CA0738D021F00101AAF8001014
:10445000B9F8060030B101280CD0022813D0032887
:1044600028D02AE003B00022BDE8F04F17491848D1
:1044700002F0B8BD03B01449BDE8F04F0022143972
:10448000134802F0FBBD10484FF000414660C66083
:10449000C0E904618661C661C90D80F820B041623F
:1044A00003B00146BDE8F04F0022094800E004E0F7
:1044B00002F0C8BC287918B12E71FFF785F993E492
:1044C00085F804B0F9E70000D466002074010020EC
:1044D00068070020014800F0B9BE0000080700206E
:1044E000014800F0B3BE000010110020014800F0A8
:1044F000ADBE0000B010002001681823CAB2103A07
:10450000B2FBF3F2054B6FF30901032A9B5CC36511
:1045100000D9091D8165084670470000E85F010861
:1045200010B5014600208B698A6A4FF0C07453B100
:10453000B3F5005F15D072B1012A0CD0022A0AD05F
:10454000032A09D104E01AB1012A06D0022A03D1B4
:10455000C96AC90100D5012010BDC96AA142FAD0BB
:1045600010BD002AF7D0012AF2D0022AF3D0032A84
:10457000F3D010BD30B50468256825F4802525608A
:10458000046863608368402B036803D09960006807
:10459000C26030BD9A600068C16030BD704772B6BD
:1045A000FEE70000002229B101291AD002291BD000
:1045B0004FF440720E490B6823F440730B600B6894
:1045C00013430B600A6822F0F8020A600A680223AB
:1045D00003EBC00002430A60086840F480300860C2
:1045E00070474FF48072E5E74FF40072E2E7000095
:1045F000103C02401348016889050FD5016821F479
:1046000000710160016841F400610160016821F4FA
:1046100000610160016841F40071016001684905B1
:104620000FD5016821F480610160016841F4805177
:104630000160016821F480510160016841F48061EA
:1046400001607047003C024008490A6822F4407249
:104650000A600A6842F004020A600A684FF4803374
:1046600043EA002002430A6070470000103C024009
:10467000064A136823F440731360136813601368C9
:1046800043F001031360017070470000103C0240CA
:10469000094910B50C6824F440740C600C6844F4AB
:1046A00040740C600C6844F001040C600260BFF3BD
:1046B0006F8F436010BD0000103C0240074A136832
:1046C00023F440731360136843F48073136013681A
:1046D00043F001031360018070470000103C02406A
:1046E000074A136823F440731360136843F400739C
:1046F0001360136843F0010313600160704700000A
:10470000103C024017490868C206174805D5C2691F
:1047100042F01002C26110220A600A68920605D5B2
:10472000C26942F00802C26120220A600A68520689
:1047300005D5C26942F00402C26140220A600A68DB
:10474000120605D5C26942F00202C26180220A60E7
:104750000A68920705D5C26942F02002C2610220B0
:10476000086070470C3C0240CC07002070B511492E
:1047700004460020C86101F095F806460E4D09E098
:10478000601C07D024B101F08DF8801BA04201D934
:10479000032070BD2868C003F2D42868C00701D088
:1047A00001202860286810F0F200F2D0FFF7AAFF7D
:1047B000012070BDCC0700200C3C02402DE9F041E7
:1047C000D2B00E46589C00211D46218001469046DD
:1047D00046A80EF096FD90BB4FF48C77694646A82C
:1047E0000EF062FE58BB9DF8160040B398F800002A
:1047F0002A2811D02E210DF11600FBF756FD0028B6
:10480000ECD09DF80810401C3142E7D04146FBF740
:104810005CFD0028E2D103E09DF808003042DDD0C5
:1048200020883A46C0EBC00000EB800005EBC000DA
:104830006946FBF7F6FC2088401C2080CEE7FFE7A6
:1048400046A80EF0BAFB52B0BDE8F081F8B51021D1
:10485000414800F0AAFC414F414B42A2202142A016
:104860000097FFF7ABFF0024404E3D4D0FE000BF27
:10487000C4EBC40000EB800005EBC00104EB840036
:1048800006EB80001631FBF707FD641CE4B23888A4
:104890008442EDD3354D00210C3D80B229800C229D
:1048A00068806A81A980E9800C2801D2288100E013
:1048B0002A812E4901232A220C392C4800F05CF869
:1048C0002B4C00BF03F0E8FB2088010605D520F043
:1048D0008000012320802D2238E0410605D520F0FC
:1048E0004000012320802B2230E0810602D520F0F9
:1048F000200003E0C10603D520F010002080E1E78E
:10490000C10509D580B220F480702080BDE8F84050
:104910001021114800F077BCC107D3D020F001006E
:104920002080002003F056FCE88800EB800006EBB6
:1049300080000FF0F9FF0F4FB86C00F083FC0128E6
:10494000FAD1002003F046FC01232A220749074838
:104950000C3900F011F8B5E7F406002060050020DE
:10496000586700206E657300303A2F0034880020AD
:1049700038010020001000202DE9F84398460C462D
:1049800007464FF478494FF6FF752B2A07D02D2A9A
:1049900064D02A2A41D1012B3FD1A688D8E02089B2
:1049A000E188421E914225DA491C88B2E080012B41
:1049B00033D100EB800107EB810114390091A1880C
:1049C0000023401A401E00EB800005EA80012A46C1
:1049D000184600F0C1F8E0884A4600EB800107EB7A
:1049E00081010091A188401A00EB800005EA800156
:1049F00000235BE0618888420FD2002003F0EAFBCD
:104A0000A088401C86B2A680E088401CE0802089F7
:104A1000401C2081B8F1010F1CD0BDE8F883E0886C
:104A2000B04206EB860007EB80000090A088A6EB62
:104A3000000000EB800004D105EA800100234A4613
:104A400003E02A4605EA80010023002000F084F8F4
:104A5000761CB6B22089B042E1D8DEE7E188A088B2
:104A6000814227D9491E89B2E180012BD5D101EBC2
:104A70008102081A07EB820200EB800005EA800140
:104A8000002300924A46184600F066F8E0882A465D
:104A900000EB800107EB810114310091A188401ADD
:104AA000401C00EB800005EA80010023002000F09C
:104AB00053F8B2E721888842AFD9002003F08AFB7F
:104AC000A088401E86B2A680E088401EE080208933
:104AD000401E2081B8F1010F1BD09EE7E088B04254
:104AE00006EB860007EB80000090A088A6EB000094
:104AF00000EB800004D105EA800100234A4603E070
:104B00002A4605EA80010023002000F025F8761CE3
:104B1000B6B22089B042E1D87FE7E088B04206EB28
:104B2000860007EB80000090A088A6EB000000EB59
:104B3000800004D105EA800100234A4603E02A46AA
:104B400005EA80010023002000F006F8761CB6B2CA
:104B50002089B042E1D860E72DE9FF4F82B0894655
:104B6000DDF83CB004460090A4E080283ED20D2839
:104B700004D0202808D9203880B206E009F11000BE
:104B80001FFA80F9009C2EE00020DFF838A10026F3
:104B90004FF0800801900198002506EB001700BF38
:104BA0001AF8071028FA05F0014206D009EB0600B2
:104BB00081B2601980B2049A09E0DDE904018842FB
:104BC00007D009EB060081B2601980B2059A03F0A4
:104BD000A4FB6D1CEDB2082DE2D3761CF6B2102EAC
:104BE000D9D30834A4B20BF1010B63E04FF00008F5
:104BF000354808EB08119BF8002010F8113093425B
:104C00004DD100EB4100019041789BF801008142B9
:104C100045D100254FF0800A0198002600EB45079A
:104C20002AFA06F0B978014206D009EB050081B2F4
:104C3000A01980B2049A09E0DDE90401884207D096
:104C400009EB050081B2A01980B2059A03F065FB5B
:104C5000761CF6B2082EE3D30026F9782AFA06F07D
:104C6000014207D009EB050081B2A019083080B2DB
:104C7000049A0AE0DDE90401884208D009EB050046
:104C800081B2A019083080B2059A03F046FB761C69
:104C9000F6B2082EE1D36D1CEDB2102DBCD308F195
:104CA00001001FFA80F8B8F1320FA1D310340BF1D4
:104CB000020BA4B29BF8000000287FF456AF06B0A8
:104CC000BDE8F08FC8770108B87D010878B50024E9
:104CD000009490F83C20012A19D0012280F83C2051
:104CE0000A6807230568092A13D9EE680A3A02EB15
:104CF000420293409E43EE600B788A680A3B03EBC6
:104D000043039A400368DD682A43DA6010E002201A
:104D100078BD2E6902EB420293409E432E610B78D0
:104D20008A6803EB43039A4003681D692A431A61AA
:104D30004A681F23072A13D205686E6B521E02EBC6
:104D4000820293409E436E630B790A885B1E92B287
:104D500003EB83039A4003685D6B2A435A6327E0A1
:104D600005680D2A12D22E6BD21F02EB82029340ED
:104D70009E432E630B790A88DB1F92B203EB8303F9
:104D80009A4003681D6B2A431A6311E0EE6A0D3ADC
:104D900002EB820293409E43EE620B790A880D3B40
:104DA00092B203EB83039A400368DD6A2A43DA6216
:104DB000164B0568144A9D4206D10D68122D03D189
:104DC000556845F48005556005689D4218D10B680B
:104DD000102B01D0112B13D1536843F400035360FF
:104DE000096810290CD10A490A4A0968B1FBF2F195
:104DF00001EB8101490000E0491E00910029FBD12F
:104E000080F83C40002078BD002301400020014094
:104E10007C00002040420F00006C70470068C06CAE
:104E2000704770B504004FF0000503D0206C0026D9
:104E300010B107E0012070BD204600F01DF8666447
:104E400084F83C60206CC00610D4206C20F488509C
:104E500040F0020020642046FEF7CAFB6664206C26
:104E600020F0020040F00100206400E0012584F8F9
:104E70003C60284670BD000010B586B00446142181
:104E80006846FBF7E7F91149206888421CD11048B1
:104E90000021026842F480720260006800F48070B1
:104EA00005900B481438026842F004020260006862
:104EB00000F004000590012000900320CDE90101DD
:104EC0006946044800F0F0FB06B010BD0020014028
:104ED00044380240000802402DE9F04104460068D1
:104EE0000D4681684FF0000749050BD58068C00565
:104EF00008D5206C40F02000206484F83C7001202C
:104F0000BDE8F08100F0CEFC064613E0681C11D02D
:104F100025B100F0C7FC801BA8420BD920680068AF
:104F2000800707D4206C40F00400206484F83C70B3
:104F30000320E5E7206800688007E7D521686FF067
:104F400012000860206C40F40070206420688168C2
:104F500011F0405F13D1217E89B9C16A11F4700F3D
:104F600002D0806840050AD4206C20F48070206450
:104F7000206CC00403D4206C40F0010020640020A9
:104F8000BEE7000018B50021009190F83C20012AEE
:104F900007D0012280F83C2002689368DB0702D02A
:104FA00011E0022018BD936843F0010393602E4A7C
:104FB0002E4B1268B2FBF3F202EB420200E0521EEB
:104FC0000092002AFBD102689368DB0742D0036C91
:104FD00040F20164A34343F48073036453685B05A8
:104FE00005D5036C23F4005343F480530364036C2E
:104FF000DB0404D5436C23F00603436400E0416402
:1050000080F83C101A496FF0220313604968006869
:10501000CA06184906D0884224D1816811F0405F41
:1050200013D01FE08842F8D0134A904203D1D1F840
:105030000423D206F1D0114A904213D1D1F80413BF
:1050400001F01F011029E8D30CE0816841F0804194
:10505000816007E0016C41F010010164416C41F096
:1050600001014164002018BD7C00002040420F0077
:1050700000230140002001400021014000220140A6
:1050800070B54379012B1CD00126467102230371B0
:1050900005682B6802F0100440F6FE72A2409343AC
:1050A000D1E900210A43A2401A432A6001680A6834
:1050B000C023A3409A430A6006710021417108464B
:1050C00070BD022070BD70B5040003D020790025AA
:1050D00010B105E0012070BD6571204600F008F8B0
:1050E00002202071256101202071002070BD000088
:1050F00070B586B0054614216846FBF7ABF81F492A
:105100002868884237D11E480026016841F00051C6
:105110000160006800F000500590194810380168DF
:1051200041F0010101600068694600F0010005904E
:10513000202000900320CDE90106124800F0B4FAC7
:10514000124C114820604FF0606060604020C4E95C
:10515000020600012061800060618000A061801172
:10516000C4E907062046666200F040F908B1FFF77F
:1051700016FAEC60A56306B070BD00000074004034
:105180004038024000000240A060024008070020B2
:1051900018B5046800940068104421B114300090E0
:1051A0000360002018BD0830F9E770B54279012A84
:1051B0001ED001224271022303710468266801F0A7
:1051C000100302FA03F52E4326600029016811D06E
:1051D0000C6804F470153C249C40A54203D14B6834
:1051E00043F002034B60027100214171084670BD1B
:1051F000022070BD0B68C3F383030F2BF3D14B6800
:1052000043F00103EEE710B50268136801F01004E3
:10521000012101FA04F4A34313600171002010BDC1
:1052200090F83510022903D0802141650120704794
:10523000052180F835100068016821F00101016046
:105240000020704790F83500704700002DE9F843C2
:1052500004464FF00009CDF8009063484FF4165112
:10526000A56D0068B0FBF1F72E6894F85C1008207B
:1052700000FA01F131420FD021680A6852070BD5BC
:105280000A6822F004020A6094F85C108840A86062
:10529000606D40F00100606594F85C104FF001080B
:1052A00008FA01F0304208D021684969090604D59E
:1052B000A860606D40F00200606594F85C10042006
:1052C0008840304208D021680968890704D5A86061
:1052D000606D40F00400606594F85C101020884018
:1052E000304218D021680968090714D5A8602068E1
:1052F0000168490304D50068000308D5A16C07E0E4
:105300000168C90503D4016821F008010160216C1E
:1053100009B12046884794F85C102020884030422C
:1053200031D021680968C9062DD5A86094F83500E8
:1053300005282068016806D0490347D500680003A6
:105340001DD4616C1CE021F01601016020684169E8
:1053500021F080014161206C08B9A06C20B1206867
:10536000016821F00801016094F85C103F2088403A
:10537000A86084F8358084F83490216D1FE0E16BDB
:1053800009B120468847606D00282BD0606DC007AA
:1053900014D0052084F835002068016821F001014F
:1053A00001600098401C0090B84203D82068006853
:1053B000C007F6D184F8358084F83490E16C002978
:1053C00010D001B02046BDE8F04308470168C90588
:1053D000D5D4016821F01001016084F8358084F88B
:1053E0003490CCE7BDE8F8837C0000202DE9F04143
:1053F000044600F057FA06465CB1022084F83500F6
:10540000002584F834502068016821F00101016012
:105410000DE00120BDE8F08100F044FA801B052872
:1054200005D920206065032084F83500F2E7206864
:105430000068C007F0D12268116820480140D4E913
:1054400001031843D4E9033633431843636918430F
:10545000A3691843E3691843236A18430843616A40
:10546000042903D1D4E90B131943084310602068C1
:105470004069666A20F0070130460E430127042880
:105480000CD1A06A0643E06A40B12046FFF748F815
:1054900020B14020606584F83570BAE72068466125
:1054A0002046FFF729F894F85C203F219140816065
:1054B000656584F835700020ACE700003F8010F08F
:1054C0002DE9F0410446866D90F83400002501284E
:1054D0000DD0012084F8340094F835700020012F9D
:1054E00007D084F8340002252846BDE8F081022068
:1054F000FBE7022784F8357060652046FFF73AF82D
:1055000094F85C103F208840B0602068016841F04A
:1055100016010160206C20B12068016841F008018B
:1055200001602068016841F001010160DCE70000D2
:1055300070B5044600F0B6F90546601C02D0044878
:105540000078044400F0AEF9401BA042FAD370BDCD
:10555000700000202DE9F047044622480F46017EE6
:1055600001290AD00121804601764CF25039484683
:10557000FFF7FCF8020003D02FE00220BDE8F0871F
:105580004FF0FF3038602068174D012801D0A66821
:105590001CE0207C6168FFF757F84846FFF7E6F803
:1055A0000246286820F00400286014E0217C304680
:1055B000FEF7F8FF4846FFF7D9F80200286820F008
:1055C000FA00286001D03E6005E0761CD4E90210A4
:1055D0000844B042EAD8FFF70DF8002188F8181007
:1055E0001046CBE7CC070020103C0240034801687E
:1055F00041F000410160002070470000103C024073
:105600002DE9F0471B4E05461446307E1F4689465D
:10561000012808D0012030764CF250384046FFF780
:10562000A5F818B114E00220BDE8F0879DB1012D66
:1056300016D0022D19D022463B464846FFF728F8DF
:105640004046FFF793F80C490A6822F001020A600D
:1056500000213176E8E7E1B24846FFF709F8EFE7C5
:10566000A1B24846FFF72AF8EAE721464846FFF785
:1056700037F8E5E7CC070020103C0240074900203E
:105680000A68002A09DA054A054B0C3A1360054BF3
:1056900013600968002900DA01207047103C0240BD
:1056A00023016745AB89EFCD2DE9F84FDFF8BCA1A9
:1056B0000022012503264FF00F090AF1040BAAF17D
:1056C000040E00BF0B6805FA02F42340A34270D118
:1056D0000F7907F00307012F01D0022F16D1876839
:1056E0004FEA420806FA08FC27EA0C07D1F80CC07A
:1056F0000CFA08FC4CEA070CC0F808C04768A7433E
:105700000C79C4F3001494403C4344600C79E443A6
:10571000A4070AD0C4684FEA420C06FA0CF7BC434F
:105720008F6807FA0CF72743C7600C7904F003046D
:10573000022C12D1D40800EB840CDCF8204057076F
:10574000FF0E09FA07F824EA0804D1F8108008FAD5
:1057500007F848EA0408CCF8208004684FEA420CB5
:1057600006FA0CF7BC430F7907F0030707FA0CF7AA
:10577000274307604C6814F4403F70D03C4C2768C6
:1057800047F480472760246822F0030704F480442C
:105790000094384C07EB040CDCF8084897074FEAF4
:1057A000177809FA08F7BC43334FB84202D10027F3
:1057B00024E054E0314FB84201D101271EE0304FC0
:1057C000B84201D1022719E02E4FB84201D1032778
:1057D00014E02D4FB84201D104270FE02B4FB842FF
:1057E00001D105270AE02A4FB84201D1062705E07A
:1057F000284FB84201D1072700E0082707FA08F729
:105800002743CCF80878DAF800405746D1F804C0AE
:105810009C435FEACC2C00D51C433C60DBF8004085
:105820005F46D1F804C09C435FEA8C2C00D51C4332
:105830003C60DEF800407746D1F804C09C435FEA44
:105840008C3C00D51C433C60084F083F3C68D1F8B5
:1058500004C09C435FEACC3C00D51C433C60521C16
:10586000102AFFF42FAFBDE8F88F0000083C01407C
:105870004438024000300140000002400004024071
:1058800000080240000C02400010024000140240D8
:1058900000180240001C02400AB1816170470904EF
:1058A000FBE700000148806870470000700000209E
:1058B00002488168027811448160704770000020BE
:1058C0000B4810B5016841F400710160016841F4B2
:1058D00080610160016841F480710160032000F083
:1058E0006FF80F2000F006F800F024F8002010BD3B
:1058F000003C024070B50D4D04464FF47A71287893
:10590000B1FBF0F00A490968B1FBF0F001F026FEA6
:1059100048B9102C07D200222146501E00F030F862
:1059200000206C6070BD012070BD00007000002080
:105930007C0000200A4808B5016841F480410160FC
:10594000006800F4804000900548001F016841F0A5
:1059500080510160006800F08050009008BD000098
:1059600044380240002809DB00F01F020121914069
:105970004009800000F1E020C0F8001170470000ED
:10598000F0B40E4B1B680C46C3F30223C3F10705AA
:10599000042D00D90425191D072901D2002300E098
:1059A000DB1E012606FA05F1491E214099409E4062
:1059B000761E16403143F0BC0BF07ABD0CED00E0D2
:1059C000064900F0070208684FF6FF03184040EA56
:1059D0000220034A10430860704700000CED00E00D
:1059E0000000FA0570470068416200207047F0B57A
:1059F0000368586A39B19C6A4FF4827600EB14440C
:105A000000204D1E0AE040EA024098620FE006EBDB
:105A10008007DF59401C04EB1744C0B2A842F6D3FC
:105A200044EA02404FF4807202EB8101585000209A
:105A3000F0BDD0F8080509F079BC01EBC10200EB1C
:105A40008202D0F80805D26C09F0CEBB01EBC1028E
:105A500000EB8202D0F80805D2F88C2209F01FBCB6
:105A6000D0F8080509F064BC0A0601F00F0101EB4B
:105A7000C10100EB810101D53C3101E001F51F714D
:105A800000680AF0FDBC70B504460B0601F00F007B
:105A900000EBC00104EB81014FF001024FF0000563
:105AA00003D581F83D203C3103E081F87D5201F5BA
:105AB0001F71087094F8BC04012808D084F8BC2435
:105AC00020680AF097F984F8BC54002070BD0220C9
:105AD00070BD70B5044601F00F006268904201D9B4
